:020000040800F2
:10000000D0CD0020ED030008EF9D00083F8D0008D3
:10001000ED9D0008BF4E0008D5CB00080000000091
:100020000000000000000000000000002D03000898
:10003000A15200080000000089030008D7B400089E
:100040000704000807040008070400080704000864
:100050000704000807040008A3520008070400086A
:1000600007040008A9520008AF520008070400085E
:100070000704000807040008070400080704000834
:100080000704000807040008070400080704000824
:10009000C14E00080704000807040008B552000814
:1000A0000704000807040008070400080704000804
:1000B00007040008070400080704000807040008F4
:1000C00007040008070400080704000807040008E4
:1000D0000704000875BB00080704000815BC0008E9
:1000E00007040008070400080704000807040008C4
:1000F000070400080704000807040008D94E000898
:1001000007040008070400080704000807040008A3
:100110000704000807040008070400080704000893
:1001200007040008314F00083D4F0008070400088D
:100130000704000807040008070400080704000873
:10014000CD4E00080704000807040008F19D0008D0
:10015000015200080D520008195200080704000857
:100160000704000807040008070400080704000843
:100170000704000807040008070400080000000046
:10018000070400080704000800F002F800F0BFF8B8
:100190000AA090E8000C82448344AAF10107DA45E2
:1001A00001D100F0B4F8AFF2090EBAE80F0013F075
:1001B000010F18BFFB1A43F00103184740760100F6
:1001C000607601000A444FF0000C10F8013B13F078
:1001D000070408BF10F8014B1D1108BF10F8015BA0
:1001E000641E05D010F8016B641E01F8016BF9D193
:1001F00013F0080F1EBF10F8014BAD1C0C1B09D1EA
:100200006D1E58BF01F801CBFAD505E014F8016B5B
:1002100001F8016B6D1EF9D59142D6D370470000ED
:100220000023002400250026103A28BF78C1FBD8FF
:10023000520728BF30C148BF0B6070476E2900F0DD
:10024000C384702900F00586662915F005876529A5
:1002500015F00287672915F0FF86612915F0FE86E3
:1002600003681B0A28BF41F08001692900F07084EF
:10027000642900F06D84752900F06A846F2900F00C
:100280009285782900F0D185E92900F02D85E429AF
:1002900000F02A85F52900F02785EF2900F08F85E9
:1002A000F82900F0D0850368DB0928BF41F0800100
:1002B000632901F07382732901F07882E32901F048
:1002C0009582F32901F09A82002070471FB515F03E
:1002D0000BFE9DE8030000F073FB01F099FF0400A2
:1002E0000020002114F0D8FA401C6060002000219A
:1002F00014F0E8FAE06001F0E3FD00F01DFB1FBD23
:1003000010B5002000F09DFE01F043FE10BD01F08D
:1003100059FF1146FFF7DAFF12F0EEFB02F0CCFFB7
:1003200003B4FFF7EDFF03BC00F02CFF2C4B196862
:100330000868B0E8F04F80F30988BFF36F8F4FF083
:10034000000080F311887047000000000848006832
:10035000006880F308884FF0000080F3148862B6CC
:1003600061B6BFF34F8FBFF36F8F00DF00BF00BFD9
:1003700008ED00E0DFF80C00016841F47001016055
:10038000704700BF88ED00E0EFF30980BFF36F8F87
:10039000134B1A681EF0100F08BF20ED108A20E9D9
:1003A000F04F106009B44FF0500080F31188BFF394
:1003B0004F8FBFF36F8F13F0E9FC4FF0000080F315
:1003C000118809BC19680868B0E8F04F1EF0100FDA
:1003D00008BFB0EC108A80F30988BFF36F8F7047B5
:1003E00020000020EFF30580704700000948804797
:1003F00009480047FEE7FEE7FEE7FEE7FEE7FEE707
:10040000FEE7FEE7FEE7FEE704480549054A064B1E
:100410007047000075B5000889010008D08D0020E4
:10042000D0CD0020D0AD0020D0AD00209FED1A1A15
:10043000F5EE000A40EE010ABDEEE00AF5EEC00A54
:1004400010EE100AF1EE10FA38BF401E00EE100A4E
:100450001349F7EE001AB8EEC00A30EEC00ADFED1D
:100460000F0A20EE200AFCEEC00A10EE900AC0F33C
:10047000080000EE900A01EB8000F8EE600A90EDB3
:10048000011A70EE600A90ED000A71EEE01A21EE9A
:10049000800A00EE810A704783F9223E0000004482
:1004A00028690108DFED190AB5EEC00A60EE200ADE
:1004B000BDEEE01A11EE100AF1EE10FA38BF401E40
:1004C00000EE100A1349F7EE001AB8EEC00A30EE3B
:1004D000C00ADFED0F0A60EE200ABCEEE00A10EE63
:1004E000100AC0F3080000EE100A01EB8000B8EE1D
:1004F000400A90ED011A70EEC00A90ED000A71EE0C
:10050000E01A21EE800A00EE810A704783F9223E4C
:10051000000000442869010870B5064600F030FA72
:10052000056806F10B0020F00704B4429CBF0020D0
:1005300070BD2B466A68BAB11068A04210D304F1AE
:10054000080188423CBF5068586007D351681019B1
:1005500041601168091B016058601460101D70BD76
:1005600013465268002AE7D12146284600F014FAC3
:100570000028DED170BD70B50446051F00F000FAFA
:100580000068002C14BF446870BD002C18BFAC423A
:100590003CBF20466468F8D301680A18AA4218BF15
:1005A000456003D12A680546114401602868411955
:1005B000A1421CBF6C6070BD61686960216808441D
:1005C000286070BD53EA020C00F069802DE9F04B01
:1005D0004FF00006002B1FBFB3FA83F503FA05F4B2
:1005E00024FA05F65E4012BF1643B2FA82F502FA0B
:1005F00005F4C5F120051EBF22FA05FC44EA0C04EF
:10060000203556EA044C4FEA144418BF641C4FF0DE
:1006100000084FF00009904271EB030C39D3002918
:1006200019BFB1FA81F701FA07F6B0FA80F700FABC
:1006300007F6C7F120071EBF20FA07FC46EA0C06A2
:100640002037B6FBF4FCA7EB0507103F07F01F0BA4
:10065000CBF120060CFA0BFB2CFA06F644BFB3468E
:100660000026202FA4BF5E464FF0000B5BEA060C6D
:1006700008BF4FF0010B19EB0B09ABFB027C48EBF9
:100680000608C01B06FB02CC0BFB03CC71EB0C0174
:10069000C1E70B46024641464846BDE8F08B13B51C
:1006A0004FF000004FF00001AFF30080BDE81C40A8
:1006B00070472DE9F041074615460E461020FFF71A
:1006C0002BFF04000AD06760C4E9026500F05CF902
:1006D0000168216004600020BDE8F0810120FBE793
:1006E00010B5431C02E010F8011B71B18107FAD16B
:1006F0004FF0013202C88C1A8C4314EAC211F9D0AF
:10070000C01A0A0603D0C01E10BDC01A10BD0A04CC
:1007100001D0801E10BD0902FCD0401E10BD032A6E
:1007200040F2308010F0030C00F0158011F8013B0E
:10073000BCF1020F624498BF11F801CB00F8013BF5
:1007400038BF11F8013BA2F1040298BF00F801CBB9
:1007500038BF00F8013B11F0030300F06780083A4E
:10076000C0F0088051F8043B083A51F804CBA0E8E7
:100770000810F5E7121D5CBF51F8043B40F8043B3C
:10078000AFF30080D20724BF11F8013B11F801CB71
:1007900048BF11F8012B24BF00F8013B00F801CB42
:1007A00048BF00F8012B7047431A28BF9A427FF6D2
:1007B000B6AF032A1044114440F2268010F0030F14
:1007C0001EBF11F8013D521E00F8013D10F0030F4D
:1007D0007FF4F6AF11F0030300F0A284083AC0F0F2
:1007E0000B8051F8043D083A51F804CD40F8043D1F
:1007F00040F804CDFFF7F3BF121D5CBF51F8043D74
:1008000040F8043DAFF30080D20724BF11F8013D4A
:1008100011F801CD48BF11F8012C24BF00F8013DAB
:1008200000F801CD48BF00F8012C704710B5203A00
:10083000C0F00B80B1E81850203AA0E81850B1E899
:100840001850A0E81850BFF4F5AF5FEA027C24BF4F
:10085000B1E81850A0E8185044BF18C918C0BDE846
:1008600010405FEA827C24BF51F8043B40F8043B0F
:1008700008BF7047D20728BF31F8023B48BF11F8C4
:10088000012B28BF20F8023B48BF00F8012B70471E
:1008900002F0FF0343EA032242EA024200F002B8F8
:1008A0004FF000020429C0F0128010F0030C00F099
:1008B0001B80CCF1040CBCF1020F18BF00F8012B17
:1008C000A8BF20F8022BA1EB0C0100F00DB85FEAE5
:1008D000C17C24BF00F8012B00F8012B48BF00F8B1
:1008E000012B70474FF0000200B513469446964620
:1008F000203922BFA0E80C50A0E80C50B1F1200133
:10090000BFF4F7AF090728BFA0E80C5048BF0CC0E0
:100910005DF804EB890028BF40F8042B08BF70473E
:1009200048BF20F8022B11F0804F18BF00F8012BB0
:10093000704770477047704770B5064C7C44064D51
:100940007D4403E0206820448047241DAC42F9D157
:1009500070BD000028700100347001002DE9F041E5
:1009600017460E46054633B107FB0354E41B2046E9
:10097000B047A542FAD1A5F10800BDE8F08100001A
:10098000004870473C8D0020004870476C8D002067
:10099000704770477047704738B504460A460020D4
:1009A0006946AFF30080002808BF38BD02460099B1
:1009B000204600F001FC012038BD012001F04BBBB6
:1009C000F8B5AFF30080054600200C46102000BFAC
:1009D0000646A819A0420DD9324669460020AFF359
:1009E0000080070008BF01F036FB0098A04218BF46
:1009F0000546C419FFF7C4FF05600746F01D20F047
:100A000007004619284600F00AF8B44208BFF8BDAE
:100A1000A21B31463868BDE8F84000F0CDBB00218C
:100A20000160C0E9011070471020704710B500F058
:100A3000BFFB006810BD10B5044600F0B9FB0460B0
:100A400010BD0FB4014610B504AA039800F0B2FE21
:100A500010BC5DF814FB00007CB51D4616460C006A
:100A6000009001D02044401E074B7B442A46694633
:100A70000190304600F0C1F805461CB100206946DF
:100A800000F0CEF828467CBD0B0D000070B5044682
:100A900085690068C10601D5302600E02026C00720
:100AA00007D070BDD4E9012130469047206A401C30
:100AB00020626D1EF6D570BD70B50446856900785C
:100AC000C00707D170BDD4E9012120209047206ADA
:100AD000401C20626D1EF6D570BD09684A0501D51F
:100AE00040B27047C905FCD500B2704709684A0595
:100AF00001D5C0B27047C905FCD580B2704770B54A
:100B00000C460546012A05D02878800600D5EA69FA
:100B1000002302E0012305E05B1C934202D2E05C6B
:100B20000028F9D1A869E618C01AA861286A1844F3
:100B300028622846FFF7AAFF04E0D5E9012114F84E
:100B4000010B9047B442F8D32846FFF7B5FF70BDBC
:100B50002DE9F0410646002410687529314616A596
:100B600010D0FFF7BAFF002802DA404213A507E0D1
:100B700031688A0701D512A502E0490704D511A5FD
:100B8000012401E0FFF7B2FF00210A2206F1240749
:100B900009E0B0FBF2FCB0FBF2F302FB1C003030CA
:100BA00078541846491C0028F3D123462A4630467B
:100BB000BDE8F04100F078BB000000002D0000000F
:100BC0002B0000002000000011680268006A530535
:100BD00001D508700AE0D30501D5088006E01306A8
:100BE00003D5C217C1E9000200E008600120704788
:100BF00001694A1C02610878704700B58FB0CDE9E1
:100C000001310021059105497944CDE903101146D0
:100C1000684600F029F90FB000BD0000E5FFFFFFB6
:100C20000A6802F8010B0A60704700002DE9FF5FB7
:100C300015468A460446DFF8AC80F8440027D8E918
:100C400000103E46CDE9001010E03AF816106A4652
:100C500002A801F0D9F9411C07D02178890603D5F3
:100C6000E269391891420DD80744761C2078800635
:100C700002D5E069B84205DDAE42E6DB3AF816007F
:100C80000028E2D1A069C01BA0612046FFF7FEFE4C
:100C9000D8E90010CDE90010002017E03AF818104C
:100CA0006A4602A801F0B0F9B0F1FF3F81460BD0CF
:100CB00000250DF1080B05E0D4E901211BF8050022
:100CC00090476D1C4D45F7D308F10100B0428046B6
:100CD000E4DB206A384420622046FFF7EDFEBDE8E1
:100CE000FF9F00004A6501002DE9F0418046D21DBA
:100CF00022F007020025D2E90002F52915A614D03A
:100D0000011E72F1000106DA0023D0EB030063EB51
:100D1000020211A608E0D8F800108B0701D50FA633
:100D200002E0490701D50EA601251146002408F16D
:100D3000240704E000F05AFA30323A55641C50EAB5
:100D40000102F7D12B46324621464046BDE8F0412C
:100D500000F0AABA000000002D0000002B000000E7
:100D60002000000030B4002100F1240408E002F06B
:100D70000705D208303542EA4372DB086554491C46
:100D800052EA0305F3D10468002310A2250707D512
:100D9000A40600D421B1C46901230DA2641EC4615C
:100DA00030BC00F081BA10B5044621461068FFF748
:100DB0009DFE02462046BDE810400023D2E7D21D2A
:100DC00022F00701D1E90023CCE700000000000079
:100DD00030000000F0B40D460188090502D5214C11
:100DE0007C4402E01F4C7C440E34002100F12406B8
:100DF00008E002F00F071209E75D42EA03721B09DF
:100E00007754491C52EA0307F3D1027800231207F2
:100E100004D5702D06D009B1022311342246F0BC4E
:100E200000F042BA01231034F8E770B504460D46CD
:100E300021461068FFF75AFE024629462046BDE8C3
:100E400070400023C6E7D21D22F00703D3E9002338
:100E5000C0E70368126843F0200303600823C361FE
:100E60000023B7E7AC6301002DE9F05F8946044633
:100E70004FF0000ADFF874B1FB44C0F820A0204610
:100E8000E1688847002874D0252806D0D4E90121DC
:100E90009047206A401C2062F1E700265F4620460A
:100EA000E16888472028054607DB312D05D27819EF
:100EB00010F8200C08B10643F1E7B00701D526F081
:100EC0000406C4F81CA00027C4F818A02A2D09D0D5
:100ED000284610F023FD38B304EB8708303DC8F8EE
:100EE000185019E059F8041B204604EB8702916161
:100EF000E1688847012F054618D1E069002820DA0B
:100F000026F020061DE0D8F8180000EB800005EB65
:100F100040003038C8F818002046E1688847054688
:100F200010F0FCFC0028EED1012F0AD02E2D08D1A4
:100F30002046E16888477F1C0546022F46F02006C0
:100F4000C4DBA069002803DA404246F00106A06134
:100F5000F00701D026F010066C2D0BD0682D09D0BB
:100F60004C2D39D06A2D35D0742D35D07A2D33D013
:100F700016E038E0E1682F4620468847B84205462B
:100F800009D16C2F26D04FF48060E16806432046DB
:100F90008847054604E06C2F1AD04FF48070064352
:100FA0000DB3A5F14100192802D8203546F400669A
:100FB0004A462946204626604E46FFF73FF980B153
:100FC00001280BD0F61D26F0070000F1080956E7AE
:100FD0004020E4E78020D8E70020D6E706F10409A6
:100FE0004DE7284652E7206ABDE8F09F3C630100C8
:100FF0000FB400B58DB010A9099000910B904FF07F
:10100000FF300A9000200C9006487844069006486D
:1010100078446A4607900F9909A800F0BBFD0DB00F
:101020005DF814FBA70B0000BF0B000010B50020FB
:1010300001F00AF8FFF764F9BDE81040012000F064
:10104000A1B82DE9F0410646FFF79EFC80464546D3
:1010500013E016B1E068B0420ED120682860D4E9F0
:101060000101D8F8007088472046FFF784FAD8F8C5
:101070000000B842EBD100E025462C68002CE8D1F6
:10108000BDE8F08140EA0103024630B59B0710D16C
:101090004FF0013400E008C208C91D1B9D4315EA4A
:1010A000C41FF8D013F0FF0102F8011B0DD01B0A7A
:1010B000F8E711F8013B002B02F8013B05D011F8CD
:1010C000013B002B02F8013BF3D130BD0022CBB233
:1010D00010F8011B994200D1421E0029F8D1104698
:1010E0007047421E12F8013F002BFBD111F8013B63
:1010F000002B02F8013BF9D17047431A28BF9A42EE
:101100007FF694AB104410F0030F11441EBF11F88A
:10111000013D521E00F8013D10F0030F7FF4F6AFC1
:10112000103AC0F00A8010B531E91850103A20E9A1
:101130001850BFF4F9AFBDE81040530724BF31E9A0
:10114000081020E9081044BF51F8043D40F8043D60
:1011500012F0030F08BF7047D20728BF31F8023DD5
:1011600048BF11F8012C28BF20F8023D48BF00F805
:10117000012C704710B50FF00DFEBDE810400FF0C8
:1011800052BD000001491820ABBEFEE72600020058
:1011900000487047348D002010B501F039F8001D6B
:1011A00010BD00BFF536010000487047688D002073
:1011B00000487047348D0020034640688C46002864
:1011C00018BF88423CBF03464068F8D318681844EB
:1011D000884207D00CF1030020F00700001D411ADF
:1011E000521A0146081D0A60FFF7C5B930B5B0F1C3
:1011F0000A024FEA900E71F100034EEA817EB0EBD5
:101200000E0061EB91014FEA101E4EEA017E10EBD9
:101210000E0041EB11114FEA102E4EEA016E10EB59
:101220000E0041EB11214FEA104E4EEA014E10EB39
:101230000E0041EB1141401841F100014FEAD0008E
:1012400040EA41704FEAD10110EB80054FEA81047A
:1012500044EA907444EB01046D1944EB0404521BFE
:10126000A3414FF0000348BF0A3200D530BD401CF7
:1012700041F1000130BD00001FB584B000200A9C80
:1012800006AB04AA02A90094AFF3008018B1DDE90F
:10129000020108B010BD0348204002F033F80020DE
:1012A0000146F6E70000207C2DE9F0470D469946FF
:1012B0009246044600F124080168880604D5E069D6
:1012C00021F01001216000E00120A84201DD471B50
:1012D00000E00027A1697A1902EB0900081AA06151
:1012E0002078C00602D42046FFF7D0FB002608E095
:1012F000D4E901211AF806009047206A401C761CA8
:1013000020624E45F4DB2078C0060AD52046FFF760
:10131000BDFB06E0D4E9012130209047206A401C43
:101320002062381EA7F10107F4DC07E0D4E90121AF
:1013300018F805009047206A401C2062281EA5F17D
:101340000105F3DC2046FFF7B7FB2078000602D545
:101350000220BDE8F0870120FBE770472DE9FF4F31
:101360000C461E464FF0FF378BB0D2E90001DDF886
:1013700060800A908A46C1F30A5505B93D460021AE
:10138000084614F059FEBAF1000F00F4400005DAE7
:1013900000EB80004FF4400101EA50004FEA905901
:1013A000B9F1010F00DDB9460A9850EA4A000ED0A3
:1013B00044F61050A5F2FF3545432F14B8F1000F45
:1013C0001ED07542291E1EDDC9F100021CE0B8F1D5
:1013D000010F4FF0000001D0302103E0F24305E09F
:1013E0002154401CB042FBDB304600220021215436
:1013F0000B99C1F80880C1E900200FB0BDE8F08F5B
:10140000BD1B6D1CDEE74A4600DA694206A801F002
:1014100023FD06AB93E8070003AB83E807005046C3
:101420000A9902F0A1FC8DE80700A0F500501F38D2
:1014300000900398002D0ADD42F21F014A4608443D
:10144000002303A90390684602F04CFF09E0A0F5D1
:1014500000504A461F38002303A90390684602F053
:101460006BFF8DE807000004000C03D04FF0FF3045
:10147000410800E01046B8F1000F03D000220092AE
:1014800015461EE0751E05D4FFF7B0FE30326255DA
:101490006D1EF9D5B3460122084302D000227F1CFD
:1014A00004E02078302801D100227F1E002A09970D
:1014B00084D01DE0112D07DAFFF798FE3032625517
:1014C0006D1C50EA0102F5D1084302D00098C8B162
:1014D0000EE00021681E05E0235C625C6354225428
:1014E000401E491C8142F7DBAB46A81B401E0990F9
:1014F000002004F80B000B98099AC0F80880C0E996
:10150000002B7AE711264FF0000857E72DE9F04F3E
:1015100088460446D21D22F0070191B0D1E90001AE
:10152000CDE90A010FF0E9FB02460B98C00F01D08C
:101530002D2007E02068810701D52B2002E0202123
:1015400001EAC000032A099001D0072A05DB0346FF
:101550004146204600F0ECFF0BE12078800601D5E3
:10156000E06900E00620B8F1650F814606D0B8F1C9
:10157000660F18D0B8F1670F70D131E00020B9F1D3
:10158000110F009001DB112301E009F101030AAA08
:1015900001A90CA8FFF7E2FEDDE90C70002609F1B5
:1015A0000105834647E001204B4600904FF000477D
:1015B0000AAA01A90CA8FFF7D1FEDDE90DB00C992C
:1015C0005D46002610B909F101000D18B9EB0500C0
:1015D00003D4C0F1FF3609F10105A5EB09002BE0AA
:1015E000B9F1010F01DA4FF001090020B9F1110F33
:1015F0000090484601DD112300E003460AAA01A934
:101600000CA8FFF7ABFEDDE90C704D4600268346C3
:10161000207800070AD4AB4500DA5D4601A8012D09
:1016200004DD411911F8011C302907D04F4502DAB9
:1016300017F1040F04DA012082460FE06D1EEEE779
:10164000002F02DCED1B3E4403E0781CA84200DDC5
:101650007D1CB81B00F1010A4FF0004720780007FD
:1016600003D4AA4501DB4FF0FF3A0021B7F1004F48
:101670000DF143088DF8431024D002202B23002FB6
:1016800001DA7F422D230A21021EA0F1010000DCB5
:101690005FB197FBF1FC97FBF1F201FB1C7C174655
:1016A0000CF1300C08F801CDEEE7A8F10100037051
:1016B0002188090501D5452100E06521A0F1010837
:1016C00000F8011C09980FA9A1EB0807FF1D00B144
:1016D0000120411901EBEA70A1693844081A401E43
:1016E000A0612078C00602D42046FFF7CFF9099800
:1016F00028B1D4E901219047206A401C206220785B
:10170000C00622D52046FFF7C1F91EE0002E04DBFB
:10171000B34502DD01A8805D00E03020D4E901215D
:101720009047206A401C2062761CAAF101005FEA03
:10173000000A0AD100F06CFDC0680168405CD4E981
:1017400001219047206A401C2062281EA5F1010556
:10175000DCDC07E0D4E9012118F8010B9047206A8E
:10176000401C2062381EA7F10107F3DC2046FFF77A
:10177000A3F9032011B041E6D1E900239A4202D235
:10178000531C0B601070704710B5436913B1AFF371
:10179000008001E0FFF7B3F9012010BD127800F1DD
:1017A00024010A7000224A700122EDE711684FF00F
:1017B000FF32E9E7074B70B50D467B44FFF71DFA92
:1017C0000446284601F0BAFB10B14FF0FF3070BD5F
:1017D000204670BDAB0E010010B5436913B1AFF3E5
:1017E000008001E0FFF722FA012010BD128800F10D
:1017F000240182840022C2840122EDE711684FF0A7
:10180000FF32E9E72DE9FF4F1C4691464FF0FF35C7
:1018100081B000218A468846D4E90167A16902980F
:101820006D1C8847216A834688470028F6D1BBF1A2
:10183000FF3F0CD0002F26F4C0661ADD700615D5C8
:10184000BBF12B0F0AD0BBF12D0F0FD104E04FF0ED
:10185000FF3005B0BDE8F08F46F48066A1690298BC
:101860006D1C88477F1E8346002F02DDBBF1300FC1
:1018700003D0B9F1000F2AD025E0A1696D1C0298B0
:101880007F1E46F400768847002F834605DDBBF1B6
:10189000780F06D0BBF1580F03D0B9F1000F10D06C
:1018A00011E0B9F1000F02D0B9F1100F0BD1A1690D
:1018B0006D1C02987F1E26F4007688478346102010
:1018C00000E0082081464FEAE970009017E00A2006
:1018D000F8E74346AAFB0928DDF800C07F1E03FB9A
:1018E000098046F4007605F101050AFB0C0112EBB4
:1018F0000B0A029841EBEB78A16988478346002FD9
:1019000006DD4946584600F053FE5FEA000BE0D57D
:10191000E16902988847B00502D46FF0010098E7AA
:10192000F00718D1700610D55146700505D5002373
:10193000D1EB030163EB080200E042462068031D7F
:1019400023600068C0E9001205E02068011D2160E5
:101950000068C0E900A828467BE72DE9FF5F1D4627
:101960004FF0FF3B91464FF000085F46D5E9014636
:10197000A96901987F1C8847296A82468847002800
:10198000F6D1BAF1FF3F0CD0002E24F4C06419DD6B
:10199000600614D5BAF12B0F09D0BAF12D0F0ED174
:1019A00003E0584604B0BDE8F09F44F48064A969A0
:1019B00001987F1C8847761E8246002E02DDBAF110
:1019C000300F03D0B9F1000F26D032E0A969761E9E
:1019D00001987F1C44F400748847002E824605DD80
:1019E000BAF1780F06D0BAF1580F03D0B9F1000F51
:1019F00010D01EE0B9F1000F02D0B9F1100F18D1CC
:101A0000A969761E01987F1C24F4007488478246D9
:101A1000102002E0082000E00A20814609E0A969C0
:101A200008FB0908761E01987F1C44F4007488475F
:101A30008246002E05DD4946504600F0B9FD0028DB
:101A4000EDDAE96901988847A00502D46FF001003A
:101A5000A8E7E00725D1600613D5600502D5C8F1D7
:101A6000000000E0404629680A1D2A600968220536
:101A700001D5087015E0220701D5088011E0086043
:101A80000FE02868011D29600068210502D580F853
:101A9000008006E0210702D5A0F8008001E0C0F830
:101AA000008038467EE72DE9FF5F4FF00008994639
:101AB000144646469169D2E901A7DDF838B001988D
:101AC0008847054659EA0B0005D009E0A16901984D
:101AD000761C88470546216A284688470028F5D1A4
:101AE000681C03D05FEACA7005D015E04FF0FF30E4
:101AF00004B0BDE8F09F2068011D2160D0F800808F
:101B00000AE05FEACA7001D108F8015BA169761C9E
:101B100001987F1E88470546002F1ADD681C18D0E3
:101B2000B9F1000F0DD0E81705EBD060421120F09D
:101B30001F0059F822102A1A012090400142E0D1DA
:101B400007E0BBF1000FDCD12846216A8847002856
:101B5000D7D0E16901988847BBF1000F07D1002E6B
:101B600005DD5FEACA7002D1002188F80010A06884
:101B7000B84203DDBBF1000F03D017B16FF00100D5
:101B8000B6E73046B4E700000268114413780160FC
:101B900018467047D1600549794451610449794438
:101BA000116200211161114600F010BDEDFFFFFF31
:101BB0007F060000426842B1016811F8013B23B181
:101BC000521EC0E90012184670470121C160881EEC
:101BD000704742685AB1C368016843B983688B4251
:101BE00005D0491E521CC0E90012002070474FF07A
:101BF000FF3070472DE9FF4F4FF000089A4614461A
:101C0000C146464683B0D2E901B7CDF80080CDF891
:101C10000480916904988847109905465AEA0100A2
:101C200005D009E0A1690498761C88470546216A19
:101C3000284688470028F5D1681C03D05FEACB709E
:101C400005D02AE04FF0FF3007B0BDE8F08F2068E4
:101C5000011D2160D0F800801FE002A86A46E9B2A9
:101C600001F00CFB411C07D0801C09D04FF000098B
:101C70005FEACB7007D00AE0E169049888473EE04C
:101C80004FF0010904E0BDF8081028F8021B7F1E80
:101C9000A1690498761C88470546002F1ADD681C48
:101CA00018D0BAF1000F0DD0E81705EBD060421143
:101CB00020F01F005AF822102A1A012090400142F9
:101CC000CBD107E010980028C7D12846216A884761
:101CD0000028C2D0E16904988847B9F1000F0ED1FD
:101CE000109830B9002E04DD5FEACB7001D1A8F85E
:101CF0000000A068B84202DD109818B117B16FF06B
:101D00000100A1E730469FE72DE9FF4F4FF00008A3
:101D10009B461446454683B0D2E90196CDF8008033
:101D2000CDF804809169DDF848A0049888470746FB
:101D30005BEA0A0005D009E0A16904986D1C884798
:101D40000746216A384688470028F5D1781C03D019
:101D50005FEAC97005D01BE04FF0FF3007B0BDE867
:101D6000F08F2068011D2160D0F8008010E05FEA4C
:101D7000C97007D16A464046B9B200F045F9411C26
:101D800031D08044A1696D1C0498761E88470746AF
:101D9000002E14DD781C12D0BBF1000007D03B46AA
:101DA000DDE9101201F048F80028E0D107E0BAF1AF
:101DB000000FDCD13846216A88470028D7D0E16976
:101DC00004988847BAF1000F06D1002D04DD5FEAC0
:101DD000C97001D188F80000A068B04203DDBAF1F3
:101DE000000F03D016B16FF00100B7E72846B5E742
:101DF0002DE9FF5F9B46144600273D469169D2E9D5
:101E00000196DDF840A00198884780465BEA0A0009
:101E100005D009E0A16901986D1C88478046216AB8
:101E2000404688470028F5D1B8F1FF3F03D05FEA6C
:101E3000C97005D014E04FF0FF3004B0BDE8F09F4A
:101E40002068011D216007680AE05FEAC97001D1BE
:101E500027F8028BA1696D1C0198761E8847804681
:101E6000002E15DDB8F1FF3F12D0BBF1000007D006
:101E70004346DDE90E1200F0DFFF0028E5D107E060
:101E8000BAF1000FE1D14046216A88470028DCD032
:101E9000E16901988847BAF1000F05D1002D03DDF3
:101EA0005FEAC97000D13880A068B04203DDBAF1A2
:101EB000000F03D016B16FF00100BEE72846BCE763
:101EC00010B542485421FEF70DFD41485421FEF75C
:101ED00009FD40485421FEF705FD3F493B483C4A77
:101EE0003F4B08603D490A603A491960531C03653D
:101EF000481C1065012008653B48344A39A17844E4
:101F000001F044F820B9384878440A3801F001FA61
:101F100037482F4A35A1784401F038F820B93448C1
:101F200078440A3801F0F5F932482A4A2FA178445A
:101F300001F02CF820B92F4878440A3801F0E9F96B
:101F400040232248DC000021224600F0FBFF20B1A4
:101F500025487844543801F0DCF91D4822464023D6
:101F6000002100F0EFFF20B121487844543801F0FF
:101F7000D0F9184822461023002100F0E3FF002882
:101F800006D01C487844BDE81040563801F0C1B96D
:101F900010BD104870B5006D20F001040B4801F031
:101FA0006BF80B4801F068F80A4801F065F809E0A1
:101FB000206D20F00105204601F05EF82046FEF776
:101FC000DAFA2C46002CF3D170BD0000388C0020CA
:101FD0008C8C0020E08C0020E0020020E402002035
:101FE000E802002072000000EA54010077000000BF
:101FF000D6540100C25401000A460146014801F0CE
:10200000AEB80000948D002070B516460C4605460B
:10201000FFF7C2F8036893F80101012806D0FF2CEE
:102020000FD8185D68B101202C7070BDD3F807017E
:102030003246214603F2071303442846BDE87040A8
:1020400018474FF0FF3070BD10B501F043F9BDE8FF
:10205000104001F03AB910B501F062F9BDE8104046
:1020600001F033B901B5FEF75AFB01BD4FF0013C59
:1020700050F8042B51F8043B9A4221D1A2EB0C03F7
:10208000934313EACC1317D150F8042B51F8043BB7
:102090009A4215D1A2EB0C03934313EACC130BD154
:1020A00050F8042B51F8043B9A4209D1A2EB0C03DF
:1020B000934313EACC13DBD04FF00000704700BF0E
:1020C000D01A01BAB1FA81F101F0180122FA01F037
:1020D000CB40C1F12001DBB2C0B2C01A2CFA01F32F
:1020E000D11A914311EAC311E6D17047AFF30080D2
:1020F00010B500F00EF8016919B10022026188479D
:1021000001E080688047FEF791FF000010B5FEF700
:102110008DFF70B500F080F804680546A4B9202052
:10212000FEF7FAF9040011D0094900202C60C4E937
:1021300000010849A1602073206160610649A06127
:1021400009B101F016F9E061204670BDFEF76EFF9F
:10215000000000000D210008000000000EB5CDE9D0
:102160000001FEF7BDFA029069460120ABBE0EBD2C
:1021700008B5694600900220ABBE08BD1FB58DE8CA
:10218000070069460520ABBE04B010BD1FB58DE841
:102190000F0069460620ABBEF6E708B56946009019
:1021A0000920ABBE08BD1CB5CDE9000169460A2077
:1021B000ABBE1CBD704708B5694600900C20ABBE95
:1021C00008BD70477546FEF7E3FFAE460500694659
:1021D000534620F00700854618B020B5FEF714F9E5
:1021E000BDE820404FF000064FF000074FF0000818
:1021F0004FF0000B21F00701AC46ACE8C009ACE899
:10220000C009ACE8C009ACE8C0098D4670470000C1
:1022100000487047548D002000487047708D0020A2
:1022200010B50446FEF7B8FF0068005D00F001003D
:1022300010BD00002DE9F04F04460D46D21D22F0DE
:10224000070089B0D0E90097484639460EF055FDA1
:102250000246F80F01D02D2307E02068810701D541
:102260002B2302E0202101EAC0038DF820300BB1BE
:10227000012000E00020032A824601D0072A04DB67
:102280002946204600F054F93FE12078800601D429
:102290000D2500E0E569C7F30A560D2D49DA002146
:1022A0004FEA175B084613F0C7FE002F00F440000A
:1022B00007DA00EB80004FF4400100EBD07001EA38
:1022C00060008115012901DD4FF0FF3100224FEA46
:1022D000850CBCF1180F06D31346ACF118004FF073
:1022E0008052C24003E04FF4801323FA0CF30CF148
:1022F0000C0CBCF1200F04D3ACF1200C09FA0CF04B
:1023000001E007FA0CF000294FF0004801DD18B990
:102310000FE00ED140450CD319EB02095F4121B902
:10232000404502D19F4329EA0209BBEB175F00D069
:10233000761C2088000502D57B48784402E07A4864
:102340007844193808AA302302F80A30037C0AF1CD
:102350000101002E0AF1020A53546A4602DC4FF0D2
:10236000300101E04FF031014FF001088DF800100D
:1023700002D0A6F2FF3603E059EA470100D06B4EC7
:10238000002D02DC2178090704D54FF002082E2128
:102390008DF80110C44600210BE0C7F303433F0151
:1023A000C35C491C6D1E02F80830052908F10108BC
:1023B00001DA002DF1DC00210CE000EB1973491C5F
:1023C0001B786D1E082902F808304FEA091908F138
:1023D000010801DA002DF0DC21688B0602D516E039
:1023E000A8F10108E04505DD02EB080313F8013C04
:1023F000302BF5D0B8F1000F09DD02EB080313F81C
:10240000013C2E2B03D1090701D4A8F10108002DAE
:1024100005DD3E2102F808106D1E08F10108407C20
:10242000002E02F8080008F1010804DA2D20764297
:1024300002F8080002E02B2002F808000A214FF4FD
:102440007A70864208F101080BDB96FBF0F330331B
:1024500002F8083096FBF0F308F1010800FB136660
:1024600001E0642E0CDB642096FBF0F3303302F8BD
:10247000083096FBF0F308F1010800FB136601E059
:102480000A2E06DB96FBF1F0303002F8080008F166
:10249000010896FBF1F001FB1060303002F80800F3
:1024A000A16908F1010808EB050202EB0A00081A0D
:1024B000A0612078C00602D42046FEF7E7FA216A20
:1024C00008AE01EB0A00206204E0D4E9012116F80D
:1024D000010B9047BAF1010AF7D22078C00602D565
:1024E0002046FEF7D3FA6E4609E016F8010B3E28A7
:1024F0000FD0D4E901219047206A401C2062B8F136
:102500000108F2D22046FEF7D7FA09B00320BDE851
:10251000F08F206A2844206203E0D4E901213020B2
:1025200090476D1EEBD3F8E7CD50010002FCFFFF92
:102530002DE9F0411F46044603260168072A01F4ED
:10254000006004DB08B116A505E016A503E008B19C
:1025500015A500E015A521F010002060A069C01E9F
:10256000A0610FB1401EA0612046FEF78FFA4FB167
:10257000D4E9012138469047206A401C2062C01CE3
:10258000206206E0206AFAE7D4E9012115F8010B80
:102590009047761EF8D22046FEF78EFABDE8F0810D
:1025A0004E414E006E616E00494E4600696E6600F7
:1025B0003A2800D2303820F02002412A01D3A2F17B
:1025C0003700884201D34FF0FF3070472DE9F34FB9
:1025D0004FF0000A0C4656468DB001200C9001F1D8
:1025E0000C000B9062690B9801219047051E2DD0BD
:1025F000252D2CD0216A8847C0B162690B98012132
:102600009047216A88470028F7D16269411E0B98DC
:10261000904700E0761CA1690D988847216A884799
:102620000028F7D1E1690D988847DBE7A1690D988B
:102630008847A842074601D1761CD3E7E1690D9887
:1026400088477F1C02D1BAF1000F6FD06CE162693C
:102650000B9800273D46394690472A2804D16269E5
:102660000B98012190470125DFF8D08262690B9811
:1026700001219047A0F130010A290AD24745E5DC43
:1026800007EB870100EB4107303FDFD445F0100531
:10269000ECE7E90601D46FF000476C280AD04C281B
:1026A00014D0682815D06A280DD074281CD07A2838
:1026B0001AD01DE062690B98012190476C2802D066
:1026C00045F0040514E045F002050DE045F0200555
:1026D0000AE062690B9801219047682802D045F012
:1026E000080505E045F4006562690B9801219047F3
:1026F000C4E9015765283DD019DC58287AD00CDC94
:10270000452837D004DC252826D041289ED131E049
:1027100046282FD0472899D12CE05B2877D0612814
:1027200028D063287CD0642823D15AE0F7E06F28B2
:1027300048D008DC66281DD067281BD0692821D026
:102740006E2816D127E0702845D0732868D07528E8
:1027500047D078280DD14DE0A1690D9888472528EC
:1027600005463FF469AFE1690D9888476D1C3FF459
:102770006AAFD9E00D9923466A466FF0010013F065
:1027800053FDC6E045F0400023464FF00002606074
:10279000A80736D43EE0E8077FF447AF2068011D64
:1027A00021600068290501D506701BE7290701D5BE
:1027B000068017E7A90703D5F117C0E9006111E703
:1027C00006600FE745F0400023464FF008026060C6
:1027D000A80716D41EE040F60E0125EA010060604D
:1027E00016E045F0400023464FF00A026060A8075B
:1027F00007D40FE045F040006060A80708D52346E5
:1028000010220D996FF00100FEF7FCFF81E007E058
:10281000102223460D996FF00100FFF79EF878E033
:102820004FF0000963284F46C8464B46CB4602D0BE
:102830005B2807D039E02079C00601D40120A060D0
:10284000012732E06269D4F80CB00B98012190475F
:102850005E2807D14FF0010949466269D4F80CB0EF
:102860000B989047216939B900210A4603AB43F818
:102870002120491C0829FADBD8B3216949B308F1A2
:10288000010862690B98012190475D28F4D1B9F1E4
:10289000000F09D0002003A951F82020D24341F8AD
:1028A0002020401C0828F7DB03AB20690028207992
:1028B0004FEA40701ED05B462246CDF80080CDE93D
:1028C00001970D9900286FF0010020DAFFF790FAC8
:1028D0001FE0C11703AA00EBD1614B1121F01F01CA
:1028E00002EB8302411A13680120884003431360FE
:1028F000C7E719E00D99224600286FF00100009704
:1029000002DAFFF777F904E0FFF7CDF801E0FFF70F
:10291000FBF900280ADA401C06D10C9820B14FF0D0
:10292000FF300FB0BDE8F08F5046FAE7E90701D15C
:102930000AF1010A064400200C9053E6CCCCCC0CE2
:102940002DE9FF4F06468BB00878FF2806D0491CBA
:102950002D2805D000244FF0000908E000200CE0ED
:102960000124F8E709EB8903491C00EB43090878C7
:10297000FF28F7D114B1C9F1000081461078002575
:102980002C46AA4629462D2801D02B2804D1521CBA
:102990002D2813D0002082468B461078FF280FD0B8
:1029A0004FF0000C0A21521CA5FB017804FB0181A9
:1029B00005FB0C11C5194BEB0104EEE70120EAE71A
:1029C0000021084613F038FBBAF1000F02D000EBEB
:1029D00080004008C0F38157012F01DD4FF0FF3721
:1029E0000E9955EA040009EB01080BD04FF00209DB
:1029F00018F5FA7F16DA4FEACA70002F706008DD0A
:102A0000012007E04FEACA70C6E900B00FB0BDE888
:102A1000F08F00203060FEF7CBFBC0F8009018214B
:102A2000084616E0B8F5FA7F18DD002F02DAF748FD
:102A3000784401E0F6487844D0E90010C6E9001077
:102A400040EACA707060FEF7B3FBC0F80090142132
:102A500008460FB0BDE8F04F13F0EEBA002108466B
:102A600013F0EAFAB8F10001099002DAC7F10002A6
:102A700000E03A4601DAC8F1000106A800F0ECF9DE
:102A800006AB93E8070003AB83E8070044F23E007F
:102A90005BEA04010090584604D144F21E012C4622
:102AA0005D460091210C0904014306D100992404DC
:102AB00044EA15442D041039009104F07F4101438C
:102AC00006D10099240244EA15642D0208390091C8
:102AD00004F07041014306D10099240144EA1574C1
:102AE0002D01091F009104F04041014306D10099D6
:102AF000A40044EA9574AD00891E009104F00041E1
:102B0000084304D100986D196441401E00904FF0B5
:102B100001033A466846B8F1000FCDE9014503A923
:102B200002DD01F01EFC01E001F0F1FBBAF1000F43
:102B300004460D4601D084F000440021084613F0FD
:102B40007BFA099940F2FF77484010F00C0F07D14B
:102B500024F00040284303D0C4F30A50B84212D1F5
:102B6000FEF726FBC0F80090C4F30A50B8420AD121
:102B7000A8487844D0E90010C6E9001004F00041EC
:102B80000843706042E7C6E900543FE72DE9FF4F74
:102B90001F464FF0000A4FF0FF38454691B0D7E985
:102BA0000146CDF83CA0FFF733FBC0680168405CEC
:102BB0001090B96912986D1C8847396A8146884718
:102BC0000028F6D1B9F1FF3F0AD0002E24F4D064DA
:102BD00011DDB9F12B0F08D0B9F12D0F0BD102E0A7
:102BE000404615B013E744F48064B96912986D1C2F
:102BF0008847761E8146600504A901D52D2000E096
:102C00002B20002E01F1010B0DF130088DF8100082
:102C10003FDDB9F1690F08D0B9F1490F05D0B9F11D
:102C20006E0F02D0B9F14E0F1CD13B4601A80095A2
:102C300080E85002DDE912126FF0020013F0F8FA9A
:102C4000C11CCED10EE0B96912986D1C884781462F
:102C50001398761E44F4007405600F98401C002EF3
:102C60000F9016DDB9F1300FEDD0B9F1780F02D029
:102C7000B9F1580F0DD10F9801280AD13B46CDE983
:102C80000054DDE91212001F029613F0CFFAC11CA6
:102C9000A7D1109989453ED144F0800406E01399EC
:102CA000681CAAF1010A44F400740860B9696D1C3B
:102CB0001298761E884730288146F0D02BE0109974
:102CC000894505D1200603D4761E44F0800418E01F
:102CD00048460EF023FE08B3761E0DF123018B4506
:102CE00044F4007408D2A9F130000BF8010B20065F
:102CF00007D5AAF1010003E0200602D40AF1010081
:102D00008246A00502D51399681C0860B96912981B
:102D10006D1C88478146002ED1DC53E0002E51DD2A
:102D2000B9F1650F02D0B9F1450F4BD1A00549D5D6
:102D3000B9696D1C1298761E24F440748847002EE1
:102D400081460CDD2B2804D0B9F12D0F07D144F4B6
:102D50008074B96912986D1C8847761E8146E0051B
:102D600001D52D2100E02B2108F8011BCDF80080B2
:102D700021E0761E0DF13901884544F400740CD22F
:102D8000A9F1300010F0FF0088F8000002D100998E
:102D9000884509D908F1010806E0E00501D51E487B
:102DA00001E042F20F708246B96912986D1C8847A3
:102DB000814613980560002E04DD48460EF0AEFDF6
:102DC0000028D6D1F96912988847FF2053468BF81E
:102DD000000088F8000000200A900B9004AA0CA9BB
:102DE0000AA8FFF7ADFDA00502D46FF00100F8E6D8
:102DF00014F0240F12D0E0071CD13868DDE90A1264
:102E0000031D3B600068C0E9001213E0F04D0100B3
:102E1000E24D0100A64C0100F1D8FFFF0AA9684667
:102E20000EF074FCE00705D13868009A011D396086
:102E3000006802602846D4E610B508E030F8024B7E
:102E40009C4204D10AB1002010BD012010BD491ED2
:102E5000F4D2104610BD00002DE9F0478146164619
:102E60008AB0354878440DC88DE80D003248784462
:102E7000801C03AC0DC884E80D0041F69B3008446B
:102E8000372190FBF1F290FBF1F5A5F1800501FBF4
:102E900012041B3C02D56442012000E00020DFF850
:102EA00098A080460027FA44AAF1BE0A0EE0E00787
:102EB0000AD03246684607EB470101230AEB81013D
:102EC00001F03AFA8DE8070064107F1C002CEED167
:102ED000194F7F44AE3F19E0E80715D007EB041007
:102EE0000DF1180A90E80E008AE80E00C068F04262
:102EF00001D1981908903246012306A903A801F0D0
:102F00001BFA03AB83E807006D10641C002DE3D1AE
:102F10004FF0010332466946B8F1000F03A802D012
:102F200001F0E0F901E001F007FAC9E90001C9F890
:102F300008200AB0BDE8F08734460100007B00F0AD
:102F40008000704770B5C468A50713D0650211D41E
:102F5000B2F5807F09D0B2F5007F06D0B2F5806F60
:102F600008D1012300F1240106E05D1E6FF07F46C9
:102F7000B54201D3012070BD0161C361416024F4F9
:102F800070611143C160002070BD00002DE9F04167
:102F90000C4607461646104600F06EF82078611C75
:102FA00061280AD0722802D077283CD102E001259E
:102FB000002405E00225042402E0082448F202056A
:102FC00011F8010B2B2806D0622809D011F8010C4A
:102FD00074280AD00BE045F0030544F00204EFE743
:102FE00045F0040544F00104EAE744F010043846D3
:102FF0002146FFF7B3F8411C15D000213161716003
:103000004FF40071F560F1617061200704D530461E
:103010000222002100F0B6FA306D40F00100306568
:103020003046BDE8F0810020FBE72DE9F0410D4678
:103030000646104C206DC10704D0410804D020F092
:103040000104F7E722460EE05420FDF765FA070079
:103050000ED0206D47F00101084354212065384609
:10306000FDF740FC3A4629463046BDE8F0418DE781
:103070000020D6E7388C00202DE9F04704464FF0B9
:1030800000094FF0FF37C568D4E90486A80707D0C8
:10309000204600F027FB3046FFF76AF8002802DAE6
:1030A0003846BDE8F087280502D54046FDF763FAAB
:1030B0004C212046FDF716FC206D20F00100206514
:1030C0004846EEE770B50646484231EA00000FD0A8
:1030D0002A20741C00253070FFF79AF8034600225E
:1030E00053F82500010F000109292BD957312AE097
:1030F000042913D004DC012908D0022904D109E0F5
:1031000008290FD0102911D0002070BDFFF780F8DA
:1031100000680EE0FFF77CF840680AE0FFF778F8F7
:10312000806806E0FFF774F8C06802E0FFF770F807
:10313000006928B120F0030050F8041C084470BD59
:103140004CA070BD3031521C082A04F8011BC9D3B1
:103150006D1C052DC3DB00202070304670BD09B109
:103160004B0901D00020704722B113782A2B02D0DE
:1031700000F034B8A6E7AFF300802DE9F0410F4628
:103180008046541C00250026314614F8010BA0F19E
:103190003002092A03D9A0F16103052B16D839287A
:1031A00001D8104600E05738491C082940EA0616A5
:1031B000EBD30120A840384203D0FFF729F840F8AC
:1031C00025606D1C052DDEDB207810B10020BDE8E8
:1031D000F08139464046BDE8F04173E72DE9F04102
:1031E0000C460646154688070AD5114622487844FB
:1031F00011F052FB071EEAD0FFF70AF87F1C476068
:10320000E0070AD029461C4878441A38AFF30080FA
:10321000071EDCD0FEF7FCFF076060070AD52946D1
:10322000154878443438AFF30080071ECFD0FEF73E
:10323000EFFF876020070AD529460F4878444E38AB
:1032400011F040FB071EC2D0FEF7E2FFC760E006A8
:103250000AD52946084878446838AFF30080051E2F
:10326000B5D0FEF7D5FF056121463046BDE8F041F7
:1032700028E7ACE7430000007247010070B516462E
:103280000C460546FDF788FF036893F80101012805
:1032900004D0185D68B101202C8070BDD3F8030103
:1032A0003246214603F2031303442846BDE870402A
:1032B00018474FF0FF3070BD10B50446AFF30080E3
:1032C0002046BDE81040FDF72BB8002801D0FDF7DF
:1032D00059BF704710B5002102A000F047FA012045
:1032E00010BD0000534947414252543A2041626E9A
:1032F0006F726D616C207465726D696E6174696F57
:103300006E00000010B500F04BFABDE81040FFF76A
:10331000DCBF10B500F09AFABDE81040FFF7D5BF4A
:1033200010B5012805D0002103A000F01FFA0120EC
:1033300010BD09A1F8E7000053494752544D454DCF
:103340003A204F7574206F662068656170206D6546
:103350006D6F7279000000003A2048656170206D41
:10336000656D6F727920636F727275707465640039
:1033700000DE10B58820FDF7CFF8002801D000212D
:10338000017010BD802902D808B1017809B1002070
:103390007047012100F8081B704718B100F10802BE
:1033A000914201D0002070470021017070472DE943
:1033B000F04705460C46C86820F4201040F4800011
:1033C000C860800602D5084600F0AFF9E06841F217
:1033D00082014FF0FF390140022903D0204600F05E
:1033E0004DF9B5E000F42041B1F5004F0FD1C00315
:1033F00006D56168E06A884200D80846606006E049
:103400002069E06260606069FEF7D5FEA061A06897
:103410000022EEB200280DDAE1688B050AD4C04321
:10342000A06041F490302260E0606068411C6160FF
:103430000670A5E0E0689046226040F40050E0602D
:10344000206968BB6069FEF7A8FE012704F1240526
:10345000A0B1A08910F4407F08D0E069FDF75CF8C6
:10346000206118B1E06840F4006016E0E761256172
:10347000E06820F4407040F480600EE0E069FDF701
:103480004BF800282061F1D0E06840F4006010F4AF
:10349000407FE06002D140F48070E06020696060AD
:1034A000E06825696FF0010AC1051FD56168E06A0F
:1034B000884200D80846411B04D02246284600F026
:1034C000E7F8F0BBE068010203D5E562C4E9015802
:1034D00054E0691CE1626160E16940F48030491E9A
:1034E000C4E9021030462E70BDE8F087010202D513
:1034F00000F480320AE06068411C61600670E06898
:103500000A2E40F48030E06006D00022E16A606854
:10351000814203D90B4602E00122F7E70346A7895F
:103520005B1B7F0503D4E7699F4200DDE2B1814266
:1035300000D80146E5620F1AC4E90158002B09DDE5
:1035400000E005E022461946284600F0A1F808B13F
:103550004846C9E747B1A069E5626560C01BA06144
:10356000E06840F01000E060E068000208D56168A3
:10357000A069E562491B08446560A0615046B3E755
:103580003046B1E72DE9F041044616460D4647693D
:10359000007B80072ED03846FEF7FFFD50BB3EB3C0
:1035A000012E02D0022E25D104E0204600F09AFB25
:1035B00005441DE03846FEF7FEFDE168002841F0B5
:1035C0001001E16005DA204600F058F80120BDE85E
:1035D000F081C9030BD56268E16A914200D81146B7
:1035E000A26911442269891A814200DD0846054416
:1035F000002D01DA0220EAE7E16A6068E2688142B0
:1036000006D29103E06203D522F4003141F01002AA
:10361000A6690027AE4213DCE16A814201D90B465C
:1036200000E0034603EB060C2369ACEB030CAC454E
:1036300006DD814201D98C4600E084469C4505D1D7
:10364000A760276042F02000A5620DE0AD1BE6698F
:10365000AE1B8142A66000D90846C01A281A206015
:103660005819606022F0200003490840E060002003
:1036700084F84870ABE70000BFCFD7FFC16821F4E2
:10368000001141F08001C16000218160016070473C
:103690002DE9F047814614460E464FF0FF38324878
:1036A000D5685769054209D03846A169FEF77BFD08
:1036B000002811DB2C48C0430540E5602B4632460C
:1036C00049463846FEF75AFDA16920F00042B21A79
:1036D00011440028A16103D02046FFF7CFFF4046E8
:1036E000BDE8F08770B504460569C06A6168884224
:1036F00000D80846E16821F42011E160C90312D521
:10370000A84208D02246411B2846FFF7C1FF10B14E
:103710004FF0FF3070BD0020E562C4E90150E06861
:1037200020F48030E060002070BD10B50446C06811
:1037300020F02000E060A16AA06988420DD02046F8
:10374000FFF7D0FFE06820F4405040F01000E06048
:10375000A06AA0612069E062606044F24001E06814
:103760008843E06010BD00001000020070B50546FF
:103770000C460A2000E06D1C00F082F835B1287874
:103780000028F8D102E0641C00F07AF814B1207827
:103790000028F8D1BDE870400A2000F071B80000A0
:1037A00010B5022803D0410103D50DA112E000207D
:1037B00010BD010101D50FA10CE0C10001D511A17F
:1037C00008E0810001D512A104E0400001D513A159
:1037D00000E0002115A0FFF7C9FF012010BD000087
:1037E000496E76616C6964204F7065726174696FAF
:1037F0006E000000446976696465204279205A654C
:10380000726F00004F766572666C6F770000000083
:10381000556E646572666C6F77000000496E65785E
:1038200061637420526573756C7400005349474698
:1038300050453A2041726974686D6574696320650A
:103840007863657074696F6E3A20000010B50146A8
:1038500002A0FFF78BFF012010BD00005349475223
:10386000545245443A2052656469726563743A2043
:1038700063616E2774206F70656E3A20000000004F
:1038800008B569468DF800000320ABBE08BD0000F6
:103890002DE9FF4F1F464FF03C0987B04FF0004223
:1038A000DDE9141001F10108DDF858A002EA4050EA
:1038B0000390002005908346054604460490B969AC
:1038C000461E08988847AAF1010A0290BAF1000F33
:1038D0003BDD02982E2815D01021FEF769FE002846
:1038E0002EDB4FF0010B0599014317D0B9F1000F02
:1038F0000BDB4A46C11700F024FA05430C43A9F13B
:10390000040905E0012004900BE008B145F0010531
:1039100001200590049820B9361D02E0049800B1FA
:10392000361FB969089808F101088847BBF1000FF4
:10393000AAF1010A0290C9D00999C1F80080C5E72F
:103940000298702808D0502806D0F969089888474E
:10395000BBF1000F14D04FE0002002900120BBF11A
:10396000000F049009D0B969089808F10108884748
:10397000AAF10109B9F1000F07DCF9690898884735
:103980006FF001000BB0BDE8F08F2B2804D02D287C
:103990000CD14FF0FF300490B969089808F1010884
:1039A0008847A9F10109B9F1000FE6DD411CE4D017
:1039B0000A21FEF7FDFD0028DFDB029908F101086E
:1039C00001EB810100EB41000290B969089888473A
:1039D0000A21FEF7EDFD099AA9F10109B9F1000FDD
:1039E000C2F8008001DD0028E7DAF9690898884705
:1039F0000499029800FB016655EA040004D004F023
:103A00004041090002D006E0039898E0A40044EA8F
:103A10009574AD00B61E04F00041080002D16D1986
:103A20006441761E159810F0240F03D04FF00B0957
:103A30005C4803E04FF028096FF07D008246564550
:103A400007DAAAEB06018944B9F1410F01DD4FF015
:103A5000410901200021A9F1010200F072F902469A
:103A600028400B462140084301D0012100E00021FD
:103A7000501E029143F1FF3128402140084301D0FC
:103A8000012000E000200299834651EA0B014FD04B
:103A90000021084612F0D0FA039900F4400039B131
:103AA00000EB80004FF4400100EBD07001EA6000B1
:103AB0008015012802DD4FF0FF3000E013D0401CDC
:103AC00036D0029860B3BBF1000F0CD14A460120FA
:103AD000002100F036F928402140084301D00120A0
:103AE00000E00020E0B101204A46002100F029F961
:103AF000034640190A4661412D1A8C4111D3B9F190
:103B0000400F09DD159810F0240F02D0AAF13406F9
:103B100003E0AAF1170600E0761C00254FF00044F0
:103B200006E05B1E42F1FF3220EA030521EA0204AF
:103B3000CAF10100B04206DA1B490398084301901C
:103B4000002000900EE0039AC4F3D321E80A0A4350
:103B5000164940EA44500A433146CDE9000268461E
:103B60000DF0D2FE159810F0240F0BD01598C00759
:103B700015D13868DDE90012031D3B600068C0E91B
:103B800000120CE002A869460DF0C0FD1598C007B0
:103B900005D13868029A011D39600068026040460C
:103BA000F0E6000002FCFFFF0000F07F0000F03FA5
:103BB0002DE9FF4F92461D4685B04FF00041DDE9EB
:103BC000124BDDE914727F1E01EA4B50414940F06F
:103BD000FF4940EA0108002122F020004928049111
:103BE00002D04E2828D04CE03BA0012607C88DE823
:103BF0000700A9690698641C88477F1E014606D401
:103C00001DF8060018B121F0200181420BD0E969AE
:103C100006988847032E34D0082E32D06FF001006A
:103C200009B0BDE8F08F761C032E01D0082EE0D13C
:103C3000601CCAF80000DCE7A9690698641C884784
:103C40007F1E2AD420F02000412826D1A969069899
:103C5000641C88477F1E20D420F020004E281CD1F1
:103C6000A9690698641C88477F1E48F4002849F417
:103C70008009CAF8004001D4282806D0E9690698CE
:103C800088475FEACB7012D022E0A9690698641CCD
:103C900088477F1E01D4002803DAE969069888471F
:103CA000BCE72928F1D1641CCAF80040E9E71BF001
:103CB000240F07D028680499031D2B600068C0E911
:103CC000001805E02868021D2A600068C0F800900E
:103CD0002046A5E70000F07F494E46494E49545919
:103CE0000000000010B50146C268900703D090069E
:103CF00007D5886A0AE0FDF75BFA01210160881E9A
:103D000010BD8B69486818440B69C01A91F8483097
:103D10001BB191F84910401A10BD1103FCD50028C1
:103D2000FADD401E10BD2DE9F04116461F460C4637
:103D3000851B02E02846B847AD1B641EFAD2BDE8D9
:103D4000F081B2F120030AD5C2F1200301FA02F199
:103D500020FA03F300FA02F041EA0301704700FA87
:103D600003F14FF0000070475FEA400C08BF91F08C
:103D7000000F4FEA8C234FEAC12243EA51514FEA28
:103D80001C5018BF00F5F0404FEA300018BF41F05A
:103D900000415FEA6C5C00F02980BCF1FF3F08BF86
:103DA00040F080407047130C06BF12044FF0100C17
:103DB0004FF0000C130E04BF12020CF1080C130F8D
:103DC00004BF12010CF1040C930F04BF92000CF11C
:103DD000020CD30F04BF52000CF1010C11464FF03E
:103DE0000002A0F11F00A0EB0C00704711F0004F83
:103DF00008BF704731F000413FF4D5AF0B0C06BF50
:103E000009044FF0100C4FF0000C0B0E04BF090218
:103E10000CF1080C0B0F04BF09010CF1040C8B0F03
:103E200004BF89000CF1020CCB0F04BF49000CF158
:103E3000010CCCF12003A0EB0C0022FA03F302FAF0
:103E40000CF241EA030100F10100704720F07F4CC1
:103E500080EA030023F07F47ACEB070303F57C53B4
:103E600000F0004003F1FF032DE980494FEA154BB4
:103E700009B44FEA144325EA0B4E24EA03480FF233
:103E8000042606EB132749083E785FEA320203FB5B
:103E90000667C7F5000707FB06F64FEA54374FEAF7
:103EA000D64606F1020607FB066CCCF1005C4FEA31
:103EB0001C472CEA074C07FB06F40CFB06F504EB49
:103EC00015464FEA961634BF00204FF000404FEAE7
:103ED000D13706FB07FC4FEA1C4C0CFB0BF7D21B3F
:103EE00003FB0CF761EB07010CFB0EF7B0EB07408F
:103EF00072EB17420CFB08F734BFA2EB0742B2EBA0
:103F0000074261EB17414FEA0C444FEA910706FB69
:103F100007FC4FEA1C4C0CFB0BF7B0EBC74072EBF5
:103F2000573203FB0CF734BFA2EBC742B2EBC742D8
:103F300061EB57310CFB0EF7B0EBC70072EB577219
:103F40000CFB08F734BFA2EBC702B2EBC70261EB70
:103F50005771039F4FEA816141EA921104EBCC044F
:103F60004FEAD1374FEA826206FB07FC42EA901221
:103F70004FEA80604FEA1C4C0CFB0BF7D21B03FB93
:103F80000CF761EB07010CFB0EF7B0EB074072EB8F
:103F900017420CFB08F734BFA2EB0742B2EB074213
:103FA00061EB17414FEA8C554FEA910704EB9C24D3
:103FB00006FB07FC4FEA1C4C0CFB0BF7B0EBC740B1
:103FC00072EB573203FB0CF734BFA2EBC742B2EBE4
:103FD000C74261EB57310CFB0EF7B0EBC70072EB39
:103FE00057720CFB08F734BFA2EBC702B2EBC70253
:103FF00061EB577115EB4C254FEA816141EA921153
:104000004FEA82624FEAD13742EA901206FB07FC80
:1040100044F100044FEA80604FEA1C4C0CFB0BF7A4
:10402000D21B03FB0CF761EB07010CFB0EF7B0EBA7
:10403000074072EB17420CFB08F734BFA2EB0742B4
:10404000B2EB074261EB174115EB1C154FEA8131CA
:1040500041EA92414FEA823242EA90424FEA80308E
:104060004FEA0C7644F1000448EA03434EEA0B4859
:104070004FF0000EB2EB080C71EB030724BF624651
:1040800039464EEB0E0E4FF0000B001852414941DD
:104090004BEB0B0BB2EB080C71EB03077BF1000B46
:1040A00024BF624639464EEB0E0E4FF0000B00184F
:1040B000524149414BEB0B0BB2EB080C71EB030780
:1040C0007BF1000B24BF624639464EEB0E0E51EADF
:1040D000020718BF46F0010616EB0E7655F10002F6
:1040E00054F1000103D5BDE88901BDE80088BDE8B1
:1040F0008901BDE80048B619524141EB0101A3F125
:104100000103704780807F7E7D7C7B7A797877762B
:1041100076757473727171706F6E6E6D6C6C6B6AA4
:104120006A69686867666665646463636261616042
:10413000605F5F5E5E5D5D5C5C5B5B5A5A595958BF
:104140005857575656555555545453535252525129
:10415000515050504F4F4F4E4E4D4D4D4C4C4C4B7F
:104160004B4B4A4A4A4949494848484747474746C6
:104170004646454545444444444343434342424202
:104180004241414146EA0646A3F570534FEA1646BE
:1041900046EA42564FEAD22242EA415210B54FEA6D
:1041A000D121A3F1010300F02FF820F0004000F12D
:1041B000020C00F0004701EB00501146BCF5006F07
:1041C00040EA070000D210BDBAF1000F0AD01CB5BA
:1041D00003B44FF004004FF0040111F02DFF0FBCA9
:1041E000BDE810404FF00001BBF1010FB9BF04481A
:1041F0004FF0FF310348002140EA070010BD00BF27
:10420000FFFFEF7F0000F07F002B9C4630D477004B
:104210002BD01CB54FEA370703B44FF010004FF016
:104220001001BAF1000F06D0BCF1000FDCBF40F066
:10423000080040F0080111F0FFFE0FBCBDE810407F
:104240000BF1010BBBF1010F08BF5FEA170722BF9B
:1042500012F1010211F101014FF0004143F100039D
:1042600000F0004043EA00007047F9D35708D0E758
:1042700046EA064613F1400F4FEA16461FDD13F1DA
:10428000200FDFBF16430A46002120335B42BED019
:10429000C3F1200746EA064602FA07F74FEA164638
:1042A00046EA0706C3F1200722FA03F201FA07F7EC
:1042B00021FA03F14FF0000342EA0702A7E746EABA
:1042C000020646EA06464FEA164646EA0106BCBF23
:1042D00046EA0646360C4FF000034FF000024FF05E
:1042E000000194E72DE9804C9A46934670B491E81A
:1042F000380007C831EA400C48BF34EA430C03D504
:10430000FFF7A4FDFFF780FFF0BCBDE8008C2DE9AE
:10431000804C9A46934670B491E8380007C831EA59
:10432000400C48BF34EA430C03D5FFF78FFDFFF77D
:1043300029FFF0BCBDE8008C2DE9804C9A469346DD
:1043400070B491E8380007C810F0804F08BF13F030
:10435000804F03D100F01AF8FFF756FFF0BCBDE81C
:10436000008C2DE9804C9A46934670B491E8380051
:1043700007C810F0804F08BF13F0804F03D100F042
:1043800005F8FFF7FFFEF0BCBDE8008C20F07F478A
:1043900080EA030023F07F4C07EB0C03A3F57C536A
:1043A00000F00040A3F1FE0392F0000F00F0B38094
:1043B00095F0000F00F077802DE901494FEA114098
:1043C0004FEA144621EA004800FB06FC24EA0647AF
:1043D00008FB06F607FB08F800FB07F718EB064892
:1043E0004CEB164C4FEA124B18EB07484FEA1546B8
:1043F0004CEB174022EA0B4E0BFB06FC25EA064766
:104400000EFB06F607FB0EFE0BFB07F71EEB064E38
:104410004CEB164C4FF000061EEB074E4CEB174BC7
:1044200018EB0B0840F1000018EB0E0B58EB0008DE
:1044300040F100008F1A4FF000013CBFC943661BDA
:1044400014BFB5EB040C00213CBFC943F61B4FEA77
:1044500017444EEA8E0E27EA04454FEA1C4704FB38
:1044600007622CEA074C05FB07F70CFB05F604FB7B
:104470000CFC16EB074642EB174216EB0C4642EBE0
:104480001C421BEB060658EB0202414146EA9E061F
:1044900001D5BDE80189B619524141EB0101A3F1F3
:1044A0000103BDE801894FEA14454FEA114724EAA8
:1044B000054621EA074C05FB07F406FB07F70CFB52
:1044C00006F105FB0CFC11EB074144EB17444FEAE6
:1044D000124711EB0C4144EB1C4422EA074C05FB4C
:1044E00007F206FB07F70CFB06F605FB0CFC16EBC8
:1044F000074642EB174216EB0C4642EB1C456A1886
:1045000054F1000148BF7047B619524141EB010117
:10451000A3F10103704795F0000F37D04FEA114225
:104520004FEA144721EA024624EA074C02FB07F14E
:1045300006FB07F70CFB06F402FB0CFC14EB07442C
:1045400041EB17414FEA154714EB0C4441EB1C417A
:1045500025EA074C02FB07F506FB07F70CFB06F6FE
:1045600002FB0CFC16EB074645EB174516EB0C4619
:1045700045EB1C42121951F1000148BF7047B619B2
:10458000524141EB0101A3F1010370474FEA144589
:104590004FEA114724EA054621EA074C05FB07F1DB
:1045A00006FB07F70CFB06F24FF0000605FB0CFCC0
:1045B00012EB074241EB174112EB0C4251EB1C414D
:1045C00048BF7047921841EB0101A3F10103704706
:1045D0000149016070470000CC8D002038B50446C9
:1045E0006846AFF300800146204610F0DDFB38BD81
:1045F000464910B54A6822F440324A604A68436826
:104600001A434A6001684A6822F480724A6001686D
:104610004A68036942EA03224A6001684A6822F054
:1046200040724A6001684A6883681A434A600168B8
:104630008A6822F400628A6001688A68C3681A4343
:104640008A60816A6FF07062D14201688A6822F0E4
:1046500070628A6001688A680CD0836A1A438A6033
:1046600001688A6822F040528A6001688A68C36AD9
:104670001A4301E022F040528A6001688A6822F001
:1046800002028A6001688A68037E42EA43028A6005
:1046900090F82010002901684A680FD042F40062A7
:1046A0004A6001684A6822F460424A6001684A68C8
:1046B000174C436A04EB43331A4301E022F40062CF
:1046C0004A600168CA6A22F47002CA620168CA6A52
:1046D000838B104C04EB03531A43CA6201688A6847
:1046E00022F400728A6001688A6890F8303042EAE9
:1046F00043228A6001688A6822F480628A600168C5
:104700008A68406942EA8020886010BD0023014029
:1047100000E0FFFF0000F0FF0CF0DEBB0CF072BC0D
:10472000FBF784BEF0EE400AF5EEC00AF1EE10FA97
:1047300002DDB0EE600A7047B1EE600AFBE70000F0
:10474000002803D09FED020A80ED000A70470000A8
:1047500000000000002803D0B3EE060A80ED000A36
:104760007047000070B52DED0C8B84B006460C46EA
:1047700015469FED990AF0EE408A9FED970AB0EE3C
:10478000409A9FED950AF0EE40BA9FED930AF0EE45
:10479000409A9FED910AB0EE40AA0EB104B11DB946
:1047A00004B0BDEC0C8B70BD8C48FFF7C9FF8C4882
:1047B000FFF7D0FF8A48D0ED000A9FED8A1A60EE1D
:1047C000810AB0EE600A00F025F9F0EE408A28EE8A
:1047D000A80AF0EE408A8248D0ED000AB0EE001A36
:1047E00060EE810A9FED7F1A60EE810AB0EE600AEA
:1047F00000F010F9B0EE409A29EE090AB0EE409AA6
:10480000DFED790AB7EE000A00EEA80ADFED770ABD
:1048100000EEC90ADFED760A20EE200A754880ED29
:10482000000A6E4890ED000ADFED730A80EE201A50
:10483000B7EE000A31EE000A20EE000A6D48D0ED16
:10484000000A80EE801A6D4880ED001A94ED000A8F
:10485000B5EEC00AF1EE10FA0DD194ED010AB5EEF5
:10486000C00AF1EE10FA06D194ED020AB5EEC00AC4
:10487000F1EE10FA46D09FED580AB0EE408A0020C3
:10488000019002900390D4ED000A60EEA00A94ED2E
:10489000011AD4ED011A41EE210A94ED021AD4ED69
:1048A000021A41EE210AB0EE600A00F0A9F8B0EE5B
:1048B000408A94ED000A20EE080A8DED010A94ED7D
:1048C000010A20EE080A8DED020A94ED020A20EE9C
:1048D000080A8DED030ADDED010AF1EE600AB0EE83
:1048E000600AFFF719FFF0EE409A9DED031AF0EE13
:1048F000410A9DED021AB0EE410AFFF70FFFB0EE3C
:1049000040AA07E09FED340AF0EE409A9FED320A8C
:10491000B0EE40AA95ED000AB5EEC00AF1EE10FA2D
:104920000DD195ED010AB5EEC00AF1EE10FA06D1EF
:1049300095ED020AB5EEC00AF1EE10FA3CD0B0EEE9
:10494000690A00F067F8B0EE408AB0EE690AFFF736
:10495000E7FEB0EE40DAB0EE4A0A00F05BF8F0EEA7
:1049600040AAB0EE4A0AFFF7DBFEB0EE40BA28EEEE
:104970002A0AD5ED010A20EE200AD5ED000A0DEE37
:10498000200A68EE0B0A95ED021A00EE810AB0EEDD
:1049900040CA95ED010A20EE0B0AD5ED020A0AEE97
:1049A000E00AF0EE40CAF0EE6C0AB0EE4C0AFFF7F7
:1049B000B5FEF0EE40BA03E09FED070AF0EE40BA14
:1049C000B0EE4A1AF0EE690AB0EE6B0A30460DF00E
:1049D00097F900BFE4E6000000000000B8020020E4
:1049E000BC02002035FA8E3CC1BFAD3B9DF8C536F8
:1049F0002F7C1C41C0020020506CC24AC40200201F
:104A000010B50CF02DFEB7EE001AC1EE000AB0EEA4
:104A1000600A10BDFBF746BD2DE9F0412DED028B7C
:104A20009AB00546B0EE408A0E46174698460020DA
:104A30001790189019901490159016904DB146B19A
:104A40003FB1B8F1000F04D0B5EEC08AF1EE10FA14
:104A500005D100201AB0BDEC028BBDE8F08196EDC7
:104A6000000A8DED170A96ED010A8DED180A96EDF4
:104A7000020A8DED190A97ED000A8DED140A97EDE3
:104A8000010A8DED150A97ED020A8DED160A17AA97
:104A900014A928460CF068FF402104A8FBF722FF68
:104AA00000200090019002900390002417A904A810
:104AB0000EF0D0FD00BF30E004A800EB041090ED34
:104AC000000AD5ED000A20EE200A04A800EB04102D
:104AD000D0ED010A95ED011A00EE810A04A800EB61
:104AE0000410D0ED020A95ED021A00EE810A04A826
:104AF00000EB0410D0ED030A95ED031A00EE810AD5
:104B000020EE080AF0EE000A80EE201A684600EB5C
:104B1000840080ED001A601CC4B2042CCCDB00249D
:104B200010E005EB840090ED000A684600EB84007D
:104B3000D0ED000A30EE200A05EB840080ED000A7B
:104B4000601CC4B2042CECDB28460EF0E1FC012012
:104B500080E7000001221021014801F016BE00008C
:104B60000000024000221021014801F00EBE0000AA
:104B7000000002407047000001221146014801F088
:104B800004BE00000004024000220121014801F09F
:104B9000FCBD00000004024030B5437804781B02DD
:104BA0001BB2234300EE103A1B4CB8EEC00AD4ED02
:104BB000010A20EE200A81ED000AC37885781B02E5
:104BC0001BB22B4300EE103AD4ED010AB8EEC00A36
:104BD00020EE200A81ED010A437904791B021BB201
:104BE000234300EE103AB8EEC00A20EE200ADFEDB3
:104BF0000B0A81ED020A017AC3790904807941EA3E
:104C00000321014300EE101AB8EE400A20EE200AFC
:104C100082ED000A30BD00006402002000401C420A
:104C200070470DF0A6BF0DF0B5BC000010B542787E
:104C30000378120212B21A4300EE102A124BB8EE99
:104C4000C00AD3ED020A20EE200A81ED000AC278E4
:104C50008478120212B2224300EE102AD3ED020A27
:104C6000B8EEC00A20EE200A81ED010A42790079EF
:104C7000120212B2024300EE102AB8EEC00A20EE71
:104C8000200A81ED020A10BD6402002010B5FFF772
:104C900071FFFFF7C5FF0DF07DF908B1802402E038
:104CA0000DF0E4F804460DF043FB10B144F0400071
:104CB00010BD0DF0CFFA204310BD00002DE9FC41DE
:104CC0000746002016460D4600900190FFF74AFF68
:104CD000922000F0BDF806226946122000F09AF8F2
:104CE000FFF738FF9DF801009DF80010000200B2A8
:104CF000084300EE100A464CB8EEC00AD4ED010A93
:104D000020EE200A85ED000A9DF803009DF80210B0
:104D1000000200B2084300EE100AD4ED010AB8EE1A
:104D2000C00A20EE200A85ED010A9DF805009DF8D5
:104D30000410000200B2084300EE100AB8EEC00AE8
:104D400020EE200A85ED020AFFF71EFF08226946C1
:104D5000002000F05FF8FFF70FFF9DF800000F281C
:104D600030D19DF803009DF80210000200B2084304
:104D700000EE100AD4ED020AB8EEC00A20EE200AB6
:104D800087ED000A9DF805009DF80410000200B2AE
:104D9000084300EE100AD4ED020AB8EEC00A20EE75
:104DA000200A87ED010A9DF807009DF80610000211
:104DB00000B2084300EE100AB8EEC00A20EE200A46
:104DC00087ED020AFFF7CEFEA22000F041F8022292
:104DD0006946222000F01EF8FFF7BCFE9DF8000097
:104DE0009DF80110C00040EA5110B0F5806F01DB62
:104DF000A0F5006000EE100AB4EE001AF8EEC00A4A
:104E0000B3EE070A00EE810A86ED000ABDE8FC81D8
:104E10006402002070B514460D4640F0800000F09A
:104E200017F806E0552000F013F8641E05F8010B92
:104E3000E4B2002CF6D170BD10B50C4640F08000F5
:104E400000F006F8552000F003F8207010BD0000B7
:104E500001B582B04FF47A700090012301AA02A933
:104E6000024803F047F99DF804000EBD400C0020F5
:104E700002784078D20042EA50100B4AB0F5806FB9
:104E8000108002DBA0F500601080B2F90000B4EEE3
:104E9000001A00EE100AF8EEC00AB3EE070A00EEA0
:104EA000810A81ED000A70476402002010B50C46AB
:104EB000FFF7CEFF2046BDE81040FFF7C9BFFEE771
:104EC000014800F068BE0000640A0020014800F0BC
:104ED00062BE00008C0A0020124A10B55068000122
:104EE0001ED5114B114C586B01684FF00060A14268
:104EF00002D90E494C3905E00A4CB834A14203D915
:104F00000A495039086006E0064C5834A14201D9DC
:104F1000D06000E090601868016841F400710160A1
:104F200010BD000000600240080B002058640240E1
:104F3000014801F0F7B800004C1100202DE9F05FA6
:104F4000A748A84BA84CC06CA64DA74EA54F00681B
:104F5000A449DFF89492DFF88CA2DFF88CB2DFF876
:104F600084E2A14A483B603418351836303F09F1D5
:104F700078090AF1300A4FF4006C0BF1300BAEF1F6
:104F8000180E884223D99749543926E0A84233D1D4
:104F90004FF020080AE0504535D1E04606E000BF5A
:104FA0004FF4001802E000BF4FF0006811EA080F4C
:104FB0007CD08C49884253D9904205D0984203D086
:104FC000A04201D0A8422FD14FF0200C45E08649E5
:104FD000A831884203D983495839096805E08249D4
:104FE000483188428149F8D949689042D0D09842E6
:104FF000CED0A042CCD0C9E7B042CED0B842CCD0BF
:105000004845CAD0C7E75845CAD07045C8D0DFF870
:10501000D88108F190084045C2D0DFF8C88108F176
:1050200048084045C0D1BBE7B04216D0B84214D0C2
:10503000484512D0504510D0584509D0704507D08A
:1050400069499031884203D066494831884202D18B
:105050004FF4001C01E04FF0006C62484C382AE02D
:105060006149A831884229D9904205D0984203D09D
:10507000A04201D0A84202D14FF0200C19E0B0426A
:1050800017D0B84215D0484513D0504511D05845D7
:1050900009D0704507D054499031884203D0514916
:1050A0004831884203D14FF4001C02E095E04FF0F4
:1050B000006C4C485038C0F800C052E04A494831B2
:1050C000884227D9904205D0984203D0A04201D00F
:1050D000A84202D14FF0200C18E0B04216D0B842DE
:1050E00014D0484512D0504510D0584509D07045CD
:1050F00007D03D499031884203D03A49483188422F
:1051000002D14FF4001C01E04FF0006C3748C0F8AA
:105110000CC026E0904205D0984203D0A04201D0B6
:10512000A84202D14FF0200C18E0B04216D0B8428D
:1051300014D0484512D0504510D0584509D070457C
:1051400007D029499031884203D026494831884206
:1051500002D14FF4001C01E04FF0006C2348C0F86E
:1051600008C0234C207880070CD5207820F002005E
:105170002070207840F004002070012211461D4864
:1051800001F003FB60781C4D80070CD5607820F09F
:1051900002006070607840F004006070012210210D
:1051A000284601F0F2FAA07880070CD5A07820F00C
:1051B0000200A070A07840F00400A070012210212D
:1051C000284601F0E2FA08F099F82078400704D563
:1051D0000A48016841F001010160BDE8F09F00004C
:1051E000400C002058640240106002400060024001
:1051F000540100200004024000000240103C014025
:10520000014800F08FBF00008C100020014800F022
:1052100089BF0000AC110020014800F083BF0000EE
:105220002C10002001681823CAB2103AB2FBF3F226
:10523000054B6FF30901032A9B5CC36500D9091D67
:105240008165084670470000D062010810B501462C
:1052500000208B698A6A4FF0C07453B1B3F5005FC8
:1052600015D072B1012A0CD0022A0AD0032A09D122
:1052700004E01AB1012A06D0022A03D1C96AC90181
:1052800000D5012010BDC96AA142FAD010BD002A84
:10529000F7D0012AF2D0022AF3D0032AF3D010BDAE
:1052A0007047012001F068B9082001F065B91020AD
:1052B00001F062B9202001F05FB97047002229B1E6
:1052C00001291AD002291BD04FF440720E490B68F5
:1052D00023F440730B600B6813430B600A6822F0E1
:1052E000F8020A600A68022303EBC00002430A6066
:1052F000086840F48030086070474FF48072E5E73A
:105300004FF40072E2E70000103C024013480168CD
:1053100089050FD5016821F400710160016841F42D
:1053200000610160016821F400610160016841F4DD
:1053300000710160016849050FD5016821F48061A1
:105340000160016841F480510160016821F48051DD
:105350000160016841F4806101607047003C0240D7
:1053600008490A6822F440720A600A6842F004029E
:105370000A600A684FF4803343EA002002430A605F
:1053800070470000103C0240064A136823F4407343
:10539000136013681360136843F001031360017016
:1053A00070470000103C0240094910B50C6824F415
:1053B00040740C600C6844F440740C600C6844F059
:1053C00001040C600260BFF36F8F436010BD0000EA
:1053D000103C0240074A136823F4407313601368BB
:1053E00043F480731360136843F00103136001807A
:1053F00070470000103C0240074A136823F44073D2
:105400001360136843F400731360136843F00103DF
:105410001360016070470000103C024017490868A3
:10542000C206174805D5C26942F01002C2611022B7
:105430000A600A68920605D5C26942F00802C26194
:1054400020220A600A68520605D5C26942F00402A9
:10545000C26140220A600A68120605D5C26942F09C
:105460000202C26180220A600A68920705D5C269F9
:1054700042F02002C2610220086070470C3C0240EA
:105480003418002070B5114904460020C86101F0AD
:1054900081F906460E4D09E0601C07D024B101F0E9
:1054A00079F9801BA04201D9032070BD2868C00390
:1054B000F2D42868C00701D001202860286810F0C5
:1054C000F200F2D0FFF7AAFF012070BD34180020CF
:1054D0000C3C024078B50024009490F83C20012A4E
:1054E00019D0012280F83C200A6807230568092AA0
:1054F00013D9EE680A3A02EB420293409E43EE60F3
:105500000B788A680A3B03EB43039A400368DD6823
:105510002A43DA6010E0022078BD2E6902EB4202D5
:1055200093409E432E610B788A6803EB43039A40B5
:1055300003681D692A431A614A681F23072A13D288
:1055400005686E6B521E02EB820293409E436E63AF
:105550000B790A885B1E92B203EB83039A400368BF
:105560005D6B2A435A6327E005680D2A12D22E6B21
:10557000D21F02EB820293409E432E630B790A886E
:10558000DB1F92B203EB83039A4003681D6B2A432F
:105590001A6311E0EE6A0D3A02EB820293409E43D9
:1055A000EE620B790A880D3B92B203EB83039A40BB
:1055B0000368DD6A2A43DA62164B0568144A9D4285
:1055C00006D10D68122D03D1556845F4800555604C
:1055D00005689D4218D10B68102B01D0112B13D1F7
:1055E000536843F400035360096810290CD10A4939
:1055F0000A4A0968B1FBF2F101EB8101490000E0C0
:10560000491E00910029FBD180F83C40002078BD64
:1056100000230140002001401C00002040420F00F8
:105620000068C06C704770B504004FF0000503D0EF
:10563000206C002610B107E0012070BD204600F06C
:105640001DF8666484F83C60206CC00610D4206CA1
:1056500020F4885040F0020020642046FEF7C8FF86
:105660006664206C20F0020040F00100206400E03D
:10567000012584F83C60284670BD000010B586B056
:10568000044614216846FBF72DF9174B22680021C8
:1056900016489A4209D1016841F48071016000689E
:1056A00000F48070059006B010BD114B9A42FAD1FB
:1056B000026842F480620260006800F48060059035
:1056C0000A481438026842F020020260006800F0C4
:1056D00020000590181500900320CDE901016946CE
:1056E000044800F055FFDEE7002001404438024046
:1056F00000220140001402402DE9F04104460068F8
:105700000D4681684FF0000749050BD58068C0053C
:1057100008D5206C40F02000206484F83C70012003
:10572000BDE8F08101F036F8064613E0681C11D0A0
:1057300025B101F02FF8801BA8420BD92068006822
:10574000800707D4206C40F00400206484F83C708B
:105750000320E5E7206800688007E7D521686FF03F
:1057600012000860206C40F400702064206881689A
:1057700011F0405F13D1217E89B9C16A11F4700F15
:1057800002D0806840050AD4206C20F48070206428
:10579000206CC00403D4206C40F001002064002081
:1057A000BEE7000018B50021009190F83C20012AC6
:1057B00007D0012280F83C2002689368DB0702D002
:1057C00011E0022018BD936843F0010393602E4A54
:1057D0002E4B1268B2FBF3F202EB420200E0521EC3
:1057E0000092002AFBD102689368DB0742D0036C69
:1057F00040F20164A34343F48073036453685B0580
:1058000005D5036C23F4005343F480530364036C05
:10581000DB0404D5436C23F00603436400E04164D9
:1058200080F83C101A496FF0220313604968006841
:10583000CA06184906D0884224D1816811F0405F19
:1058400013D01FE08842F8D0134A904203D1D1F818
:105850000423D206F1D0114A904213D1D1F8041397
:1058600001F01F011029E8D30CE0816841F080416C
:10587000816007E0016C41F010010164416C41F06E
:1058800001014164002018BD1C00002040420F00AF
:10589000002301400020014000210140002201407E
:1058A00090F82020012A07D0022A05D0416A41F44D
:1058B0008021416201207047006842690A434261C9
:1058C00000207047F0B590F820500468A468012DBE
:1058D00005D0022D03D0416A41F480215DE014F02F
:1058E000406F01D1E50055D5C4F30164022C03D902
:1058F000416A41F4000150E00125A5401D608D681A
:105900004FF4C0739DB1CE6835434E6845EAC60575
:10591000066803EB0417F5514FF4C275076805EBF1
:1059200004150E697E51097D012905D009E00E8814
:10593000CD6845EA4655EBE701684E5946F4807656
:105940004E511179D579567941EA056195792D0441
:1059500045EA062529434FF4C676056806EB04168A
:10596000A9511178D57841EA0561957852782D04CE
:1059700045EA022211434FF4C475026805EB041591
:105980005151006803EB0411425842F001024250A9
:105990000020F0BD416A41F4001141620120F0BDD8
:1059A00010B590F82020012A07D0022A05D0416ABC
:1059B00041F480214162012010BD3B48D0F8002213
:1059C00042F00102C0F80022D0F8002222F47C52FA
:1059D000C0F80022D0F800224B6A42EA0322C0F845
:1059E00000220A7D02F01F0301229A40D0F81C32E7
:1059F0009343C0F81C32CB69B3B9D0F80C3293434F
:105A0000C0F80C328C894B6864F31F434C6900EB7F
:105A1000C404C4F840320C890B6864F31F434C691A
:105A200000EBC404C4F84432CB69012B16D1D0F882
:105A30000C321343C0F80C320C884B6864F31F43DC
:105A40004C6900EBC404C4F840320C89CB6864F3A1
:105A50001F434C6900EBC404C4F844328B69002B2B
:105A6000D0F804320ED01343C0F804320B69002B77
:105A7000D0F8143208D01343C0F81432096A01294F
:105A800004D008E09343EFE79343F5E7D0F81C1206
:105A90001143C0F81C12D0F8001221F00101C0F827
:105AA0000012002010BD000000640040704730B5B7
:105AB00090F82040012C05D0022C03D0416A41F41B
:105AC00080215DE00468002955D02469A40754D0E2
:105AD0004FF4D874056804EB01142D5915F0040532
